:020000040800F2
:10000000FCFF002009180000011800000118000082
:10001000011800000118000001180000011800007C
:10002000011800000118000001180000011800006C
:10003000011800000118000001180000011800005C
:10004000011800000118000001180000011800004C
:10005000011800000118000001180000011800003C
:10006000011800000118000001180000011800002C
:10007000011800000118000001180000011800001C
:10008000011800000118000001180000011800000C
:1000900001180000011800000118000001180000FC
:1000A00001180000011800000118000001180000EC
:1000B00001180000011800000118000001180000DC
:1000C00001180000011800000118000001180000CC
:1000D00001180000011800000118000001180000BC
:1000E00001180000011800000118000001180000AC
:1000F000011800000118000001180000011800009C
:10010000011800000118000001180000011800008B
:10011000011800000118000001180000011800007B
:10012000011800000118000001180000011800006B
:10013000011800000118000001180000011800005B
:10014000011800000118000001180000011800004B
:1001500081B0194900EA0101084600220EE004209E
:1001600022E0082020E010201EE020201CE040209B
:100170001AE0802018E040F2001015E00F49884294
:10018000EDD00F498842ECD00E498842EBD00E49A1
:100190008842EAD00D498842E9D00D498842E8D02A
:1001A0000C498842E7D010460B49096841EA000231
:1001B00009490A6001B0704700FCFFFF00080140D8
:1001C000000C0140001001400014014000180140E3
:1001D000001C0140002001401810024081B0CDF801
:1001E00000E08CB21546774B00EA03031E46184622
:1001F000FFF7AEFFB4F1FF0F0CD1734B9D4203D15B
:100200004FF033333360D9E0422D03D14FF0443304
:100210003360D3E04FF6FF739C4214D16A4B9D428A
:1002200007D14FF033333360341D4FF03333236045
:10023000C4E0422D07D14FF044333360341D4FF0FA
:1002400044332360BAE00021002005F001030BB124
:1002500000211DE005F0020333B105F4C0730BB1BA
:10026000082100E0042113E005F0040333B105F098
:1002700020030BB1042100E0002109E005F0080390
:1002800033B105F020030BB10C2100E00821FFE79A
:100290004E4B05EA03030BB1032009E005F400739C
:1002A0000BB1022004E005F480630BB10120FFE7ED
:1002B00005F00C030BB10143FFE704F0FF039BB211
:1002C000002B3BD0376800201FFA84F832462E46B8
:1002D00008282CD24FF0010303FA00F408EA0403C3
:1002E000A34222D185004FF00F03AB40DB4307EA66
:1002F000030401FA05F344EA03031D4606F481737F
:10030000B3F5817F05D102F214044FF0010383405D
:10031000236006F08203822B05D102F210044FF015
:100320000103834023602F46FFE7401CD0E717609E
:100330001FFA88F00F463146164602E00F4629465E
:10034000A0B2B0F1FF0F39D9331DD3F800800022DD
:10035000082A30D202F208044FF0010303FA04F431
:1003600000EA0403A34224D195004FF00F03AB40F1
:10037000DB4308EA030807FA05F348EA030801F437
:100380008173B3F5817F07D106F2140502F20804E8
:100390004FF00103A3402B6001F08203822B07D1B1
:1003A00006F2100502F208044FF00103A3402B608F
:1003B000FFE7521CCCE7331DC3F80080DDF800E0F6
:1003C00001B0704700FCFFFF14000800000808009F
:1003D00081B000F218010A68C2F3400181F0010106
:1003E000C9B2C8B201B0704781B000F214010A6806
:1003F00000F218010968090442EA0101084601B047
:100400007047FFFF01490860704700BFA481224286
:1004100001490860704700BFA0812242014908607D
:10042000704700BF9401214201490860704700BF36
:100430009C81214201490860704700BF9881214298
:1004400001490860704700BFA88122420149086045
:10045000704700BFB481224201490860704700BF65
:100460008801224201490860704700BF9001214283
:1004700001490860704700BFA80122420149086095
:10048000704700BF8001214201490860704700BFEA
:10049000B001224201490860704700BFAC0122420E
:1004A00001490860704700BF9881214201490860F6
:1004B000704700BF9481224201490860704700BF25
:1004C0009881224281B0CDF800E00B46FFF78CFF07
:1004D00000EA03029A4240F2000200D10122D0B2A7
:1004E000DDF800E001B0704781B0CDF800E04FF0DA
:1004F00000021949884207D118490B6818490A684F
:1005000018490A601C460BE01749884207D1174971
:100510000B6817490A6813490A601C4600E0144634
:1005200014490C6003461846FFF752FF70B9114991
:10053000096851B12CB905200A4C2468A047002055
:1005400005E0611E08460446FFE7ECE70120DDF800
:1005500000E001B0704700BF00540040440000209C
:10056000780000207400002000580040480000205F
:100570007C0000204C00002001490860704700BF4B
:100580009C81214201490860704700BFB08122422E
:1005900001490860704700BFA80122420149086074
:1005A000704700BFB881224201490860704700BF10
:1005B0008C01224201490860704700BFB08122428D
:1005C00001490860704700BFB0012242014908603C
:1005D000704700BFAC01224201480068704700BF6D
:1005E0006400002083B0CDF800E000F0FF031A099A
:1005F000104603F00F02134614E0194A02921FE05E
:10060000184A02921CE0184A029219E0174A029214
:1006100016E0174A029213E0164A029210E0164AB8
:1006200002920DE00028E8D00128E9D00228EAD0A3
:100630000328EBD00428ECD00528EDD00628EED016
:10064000012212B29A40ADF8042002980A46BDF881
:100650000410FFF7C3FDDDF800E003B0704700BFF2
:1006600000080140000C014000100140001401404E
:1006700000180140001C01400020014081B00168C9
:10068000C1F3401001B0704781B00168C1F3801020
:1006900001B0704783B0CDF800E003464FF0000092
:1006A00026498B4206D126490C6826490A68264904
:1006B0000A600BE025498B4207D125490868254986
:1006C0000A6821490A60044600E0044622490C6099
:1006D000019402931846FFF707FF029B019C10B993
:1006E0004FF6FF7025E00122196862F308211960B6
:1006F00003F214010A68C2F3402111B14FF6FF70F2
:1007000017E025461C4615492046FFF7DBFE78B961
:100710001149096859B135B906200B4C2468A04726
:100720004FF6FF7005E0691E08460546FFE7EAE759
:100730000020DDF800E003B0704700BF0054004027
:100740004400002078000020740000200058004081
:10075000480000207C0000204C0000200100030025
:1007600082B0CDF800E0029E4FF00005564CA0424A
:1007700006D1564C2768564C2568564C25600AE031
:10078000554CA04206D1554C2768554C2568514C14
:10079000256000E02F46534C276000F210054C0006
:1007A000A4B22C60B9460746904635461E464E49CF
:1007B0003846FFF787FE88B94A4C24686CB1B9F116
:1007C000000F06D10420434C2468A0474FF6FF7069
:1007D00076E0A9F101008146FFE7E8E700200197F4
:1007E00029463746019E7C1EA04226D206F21005FD
:1007F00008EB000424782C603A4CD4F80090824630
:100800000D463A493046FFF75DFE88B9354C2468FD
:100810006CB1B9F1000F06D104202E4C2468A0471A
:100820004FF6FF704CE0A9F101008146FFE7E8E7D1
:100830000AF1010420462946D5E706F2100508EB27
:10084000000424782C60274C27680D462849304640
:10085000FFF738FE70B9234C246854B137B904202F
:100860001C4C2468A0474FF6FF7029E0781E07460D
:10087000FFE7EBE7012D05D10125346865F3492435
:1008800034601CE00125346865F308243460154C9D
:100890002768354617492846FFF714FE78B9114CEA
:1008A00024685CB137B904200A4C2468A0474FF68D
:1008B000FF7005E07C1E20460746FFE7EAE70020C0
:1008C000DDF800E002B07047005400404400002012
:1008D00078000020740000200058004048000020EC
:1008E0007C0000204C0000208200070080000700F0
:1008F000840007000100030082B0CDF800E0034649
:1009000019460191FFF768FE40F2E83100FB01F261
:1009100001990A601F490978C1F30311C8B21E4941
:1009200009180878C0B21A1D1968C1401160194928
:100930000988C1F3022188B2174909180878C0B2A2
:1009400003F20802191D0968C140116011490988A4
:10095000C1F3C22188B2104909180878C0B203F265
:100960000C02191D0968C14011600A490988C1F3C8
:10097000813188B2094909180978C8B203F2100216
:1009800003F20C010968B1FBF0F11160DDF800E041
:1009900002B0704704100240BE1B00008A1700001E
:1009A00081B0CDF800E0012252B23E490A6000F267
:1009B00068010B686FF0006103EA0102144603F05E
:1009C0000061C90E0B4602F00041B1F1004F02D1A7
:1009D00035490A6801E035490A6804F47021090CB8
:1009E0000E464FF6FF7104EA01010D4604F4401172
:1009F000B1F5401F0DD16FF0706102EA01010E46A2
:100A00002A490A686FF070610A4028490A60324634
:100A100016E004F48011B1F5801F09D14FF00301F5
:100A2000B140C94302EA010141F070610A4607E0A2
:100A3000610D090105FA01F1C9430A4042F07062F3
:100A40002BB1610D090105FA01F10A43FFE704F03A
:100A50000041B1F1004F02D113490A6001E013498E
:100A60000A6040F2000A81464FEA8A0109EB01015F
:100A70000968B1F1FF3F10D009F134014FEA8A0350
:100A8000C91809680A4609EB0301096808461146B6
:100A9000FFF7A8FD0AF1010AE6E7DDF800E001B082
:100AA000704700BF000342421C00014004000140A7
:100AB00081B00268C2F3401101B9FAE7011D09686B
:100AC00088B201B07047FFFF81B0CDF800E0034865
:100AD000FFF7EEFFDDF800E001B07047004C00408A
:100AE00081B0CDF800E00348FFF7C8FDDDF800E075
:100AF00001B07047004C004081B0CDF800E00348E1
:100B0000FFF7C2FDDDF800E001B07047004C004087
:100B100081B0CDF800E00348FFF7B0FDDDF800E05C
:100B200001B070470038014089B0CDF800E083463D
:100B300098B28C46BDF824100A9E04ACADF804109F
:100B4000ADF808002046FFF7D7FEBDF80800BDF855
:100B50000410644CA34512D101256DB2624C25608E
:100B6000624D634C2560634D634C2560634D644C5E
:100B70002560644D644C2560079C039456E0634CEB
:100B8000A34512D101256DB2614C2560614D584CD1
:100B90002560614D584C2560604D594C2560604D75
:100BA000594C2560069C039440E05E4CA34512D14D
:100BB00001256DB25C4C25605C4D4D4C25605C4D53
:100BC0004D4C25605B4D4E4C25605B4D4E4C256079
:100BD000069C03942AE0594CA34512D101256DB21D
:100BE000574C2560574D424C2560574D424C25606F
:100BF000564D434C2560564D434C2560069C03944E
:100C000014E0544CA34511D101256DB2524C25601E
:100C1000524D374C2560524D374C2560514D384C64
:100C20002560514D384C2560069C0394ADF80410A6
:100C3000ADF808003046FFF7B3FEBDF80800BDF878
:100C400004100BF1100500242C600BF110052C682A
:100C50000C432C600BF10C0500242C6018B140F4FF
:100C6000806080B2FFE70BF10C052C6804432C6018
:100C70000BF10C060125346865F34D3434600BF13B
:100C80000C060125346865F3C30434600BF10C06CF
:100C90000125346865F3820434600BF114050024E7
:100CA0002C60039D192465434FEA8C04B5FBF4F7CF
:100CB0006424B7FBF4F42601350964246C433C1B1F
:100CC000240104F232056424B5FBF4F404F00F04AB
:100CD00046EA04040BF10805A4B22C60DDF800E03C
:100CE00009B0704700380140380342420112000049
:100CF00080000020CD0D000084000020110B0000BA
:100D000088000020611000008C000020004400409A
:100D1000C4034242D1100000F90F0000311000005E
:100D20004910000000480040C80342421911000069
:100D3000911000006D0D0000850D0000004C00407A
:100D4000CC034242C9110000C90A0000E10A0000B8
:100D5000F90A000000500040D0034242AD110000EB
:100D60009D0D0000E50D0000BD0F000081B0CDF825
:100D700000E00348FFF782FCDDF800E001B07047B7
:100D80000048004081B0CDF800E00348FFF77CFC4C
:100D9000DDF800E001B070470048004081B0CDF8B8
:100DA00000E00348FFF784FEDDF800E001B0704783
:100DB0000050004081B0CDF800E00348FFF76AFC26
:100DC000DDF800E001B070470058004081B0CDF878
:100DD00000E00348FFF76CFEDDF800E001B070476B
:100DE0000038014081B0CDF800E00348FFF746FC31
:100DF000DDF800E001B070470050004088B0CDF849
:100E000000E00E46554B98420DD1012464B2544B7C
:100E10001C60544C544B1C60544C554B1C60554C3E
:100E2000554B1C600FE0554B98420CD1012464B225
:100E3000534B1C60534C4C4B1C60534C4C4B1C6034
:100E4000524C4D4B1C60019602901046FFF7A8FDD6
:100E50000298019E031D1B689CB26FF03F0304EAD9
:100E600003039DB203AB01901846FFF745FD0198BF
:100E7000059F059C464BB4FBF3F399B29BB245EA40
:100E80000304A4B2031D1C600024036864F3000380
:100E9000036000223F4B9E4212D87300B7FBF3F46D
:100EA000A4B2042C02D204231C46FFE742EA040346
:100EB0009AB200F220044B1C9BB2236091B23FE037
:100EC000032306FB03F4B7FBF4F31FFA83F819239B
:100ED00006FB03F5B7FBF5F31FFA83F908FB04F4EF
:100EE00009FB05F33C1BFB1A9C4205D20323734309
:100EF000B7FBF3F4A4B206E019237343B7FBF3F492
:100F0000A4B244F4804440F6FF7304EA030313B927
:100F100044F00104FFE744F400439BB21A4392B249
:100F200000F2200540F22C1301FB03F4A4B240F2BE
:100F3000E833B4FBF3F39BB25B1C9BB22B6091B222
:100F400000F21C031960002303600124036864F3AA
:100F500000030360DDF800E008B070470054004073
:100F6000D40342427910000068000020FFFFFFFF19
:100F70006C000020990F0000700000200058004015
:100F8000D8034242B50D0000FFFFFFFFD50F000060
:100F900040420F00A086010081B0CDF800E008B407
:100FA00013460A46C1B20448FFF7DAFB01B0DDF888
:100FB00000E001B0704700BF0054004081B0CDF8A0
:100FC00000E00348FFF760FBDDF800E001B0704788
:100FD0000050004081B0CDF800E008B413460A4646
:100FE000C1B20448FFF7BCFB01B0DDF800E001B07E
:100FF000704700BF0058004081B0CDF800E00348C2
:10100000FFF756FDDDF800E001B0704700440040F6
:1010100081B0ADF800100146BDF800000B68C3F3C5
:10102000C01202B9FAE70A1D106001B07047FFFF55
:1010300081B0CDF800E00348FFF720FBDDF800E0C9
:1010400001B070470044004081B0CDF800E0034893
:10105000FFF71AFBDDF800E001B0704700440040E4
:1010600081B0CDF800E00348FFF70EFBDDF800E0AB
:1010700001B070470038014081B0CDF800E003486E
:10108000FFF708FBDDF800E001B0704700540040B6
:1010900081B0CDF800E00348FFF70AFDDDF800E07D
:1010A00001B070470048004082B0CDF800E040F247
:1010B0000004ADF80440054C2468A047BDF9044085
:1010C000044320B2DDF800E002B070475800002071
:1010D00081B0CDF800E081B20348FFF799FFDDF859
:1010E00000E001B0704700BF0044004082B0CDF87E
:1010F00000E040F20004ADF80440064C2468A0472C
:10110000BDF9041041EA000000B2DDF800E002B0D1
:10111000704700BF5400002081B0CDF800E081B2DC
:101120000348FFF775FFDDF800E001B0704700BF2E
:101130000048004081B0CDF800E0019D2C4610B47D
:1011400008B493B28AB201460348FFF7EDFC02B03F
:10115000DDF800E001B070470038014081B0CDF803
:1011600000E0019D2C4610B408B493B28AB2014647
:101170000348FFF7D9FC02B0DDF800E001B070478A
:101180000044004081B0CDF800E0019D2C4610B431
:1011900008B493B28AB201460348FFF7C5FC02B017
:1011A000DDF800E001B070470048004081B0CDF8A4
:1011B00000E081B20348FFF72BFFDDF800E001B04B
:1011C000704700BF0050004081B0CDF800E081B210
:1011D0000348FFF71DFFDDF800E001B0704700BFD6
:1011E000004C004081B0CDF800E00A4601460348BB
:1011F000FFF704FEDDF800E001B070470054004046
:1012000081B0CDF800E081B20348FFF701FFDDF8BF
:1012100000E001B0704700BF0038014081B0CDF858
:1012200000E00178CCB2A0B2034C2468A0470020B3
:10123000DDF800E001B070475000002081B0CDF82B
:1012400000E0094902B440F2000340F2000240F21B
:101250000001FFF783FF01B0044A05490A6000203E
:10126000DDF800E001B070476C190000D1100000FB
:101270005000002082B0CDF800E0072801D90120FD
:101280000FE001AA1070521C1170FFF72FFF01AB85
:10129000064A127819460123D0B20222FFF704FF52
:1012A0000020DDF800E002B0704700BF60000020C1
:1012B000026806490A60011D0A6805490A6000F2D1
:1012C00008010A6803490A60704700BF5400002003
:1012D000580000205C0000207047FFFF81B0CDF86F
:1012E00000E0016808460449FFF77CFF0020DDF8B4
:1012F00000E001B0704700BFD819000081B0CDF800
:1013000000E0016808460449FFF76CFF0020DDF8A3
:1013100000E001B0704700BFD819000081B0CDF8DF
:1013200000E0094902B440F2000340F2000240F23A
:101330000001FFF727FF01B0044A05490A600020B9
:10134000DDF800E001B07047441A000019110000F8
:101350005000002081B0CDF800E0094902B440F20D
:10136000000340F2000240F20001FFF7E3FE01B08B
:10137000044A05490A600020DDF800E001B070472A
:10138000B01A0000011200005000002081B0CDF81A
:1013900000E0094902B440F2000340F2000240F2CA
:1013A0000001FFF7DBFE01B0044A05490A60002096
:1013B000DDF800E001B070476C190000D1100000AA
:1013C0005000002081B0CDF800E0012801D90520AF
:1013D00004E0C1B20620FFF74DFF0020DDF800E079
:1013E00001B0704781B0CDF800E00F2802D80F2976
:1013F00000D801E0072007E00A01D2B20243D1B2CF
:101400000520FFF737FF0020DDF800E001B070474E
:1014100081B0CDF800E0072801D9042004E0C1B272
:101420000120FFF727FF0020DDF800E001B0704742
:1014300081B0CDF800E03F2802D8032900D801E0B0
:1014400006200DE0032A03D0042A01D0012007E082
:101450008B01DBB20343D9B2D0B2FFF70BFF002000
:10146000DDF800E001B0704783B0CDF800E002463F
:1014700010460D228DF808200A228DF809201FE061
:10148000FFF7CCFE23E002782AB10190FFF7C6FEF9
:101490000198401CF7E71AE002782AB10190FFF7A3
:1014A000BDFE0198401CF7E702AA1046FFF7B6FE02
:1014B0000DF109021046FFF7B1FE08E0062007E033
:1014C0000029DDD00129DED00229E5D0F6E7002091
:1014D000DDF800E003B0704781B0CDF800E011E026
:1014E0000846FFF71BFF16E00846FFF74FFF12E024
:1014F0000846FFF72FFF0EE00846FFF79FFE0AE0C1
:10150000012008E00028EBD00128EDD02028EFD002
:101510003028F1D0F4E7DDF800E001B07047FFFFBC
:1015200081B0CDF800E00446054B1A700846FFF77D
:10153000BFFE2046FFF7D0FEDDF800E001B07047A7
:101540006000002081B0CDF800E0032801D903201D
:101550001AE0032A01D9042016E0012B02D8012940
:1015600000D801E005200FE05C01D500ADB2E4B287
:101570002C438D00ADB2E4B22C43E4B20443E1B29B
:101580000020FFF777FE0020DDF800E001B0704793
:1015900081B0CDF800E08B4609E05846FFF79EFE8B
:1015A0000AE05846FFF7AAFE06E0012004E0002802
:1015B000F3D00128F5D0F8E7DDF800E001B070477E
:1015C00081B0CDF800E02948007898BB01230022C3
:1015D00000210020FFF7B6FF0120FFF719FF1821B7
:1015E0000220FFF747FE032200210620FFF720FF1D
:1015F000042200210620FFF71BFF08210520FFF72A
:10160000F1FE80210720FFF735FE0120FFF7DAFE0B
:1016100001211648017016480121FFF725FF41F608
:10162000FF27C0F2B70700BF00BF7F1EFDD100BF7C
:1016300000BF00BF0F480078052812D20E480121D4
:10164000FFF712FF46F6FF37C0F2DC2700BF00BFEE
:101650007F1EFDD100BF00BF00BF06490878401CB7
:101660000870DDF800E001B0704700BF42000020C4
:10167000000000204300002008000020A086010098
:1016800081B0CDF800E0442210491148FFF748FF2F
:1016900048F67F57C0F25B077F1EFDD100BF00BF39
:1016A00000BF00BF00BF00210A48017000210A48A6
:1016B00001700A480221FFF7D7FE09480221FFF70F
:1016C000D3FEDDF800E001B0704700BFD01B000082
:1016D0001C1B0000420000204300002023000020CB
:1016E0004100002081B01548006840F00101134816
:1016F0000160134913480160104801681248014015
:101700000E4801600D4801686FF4802001400B48CD
:1017100001600C4801686FF4FE0001400948016057
:10172000064801686FF0A0500140044801604FF086
:1017300000010648016001B0704700BF0010024080
:101740000000FFF004100240FFFFF6FE2C100240E4
:1017500081B04FF000094FF0000CBDEB0A0F04DC24
:10176000BDEB0B0F01DBD446EA464BF8049BBBEB09
:101770000A0FFAD1BCEB0A0F05DDE246D9F800B03A
:101780000BF1040BF1E701B0704702040608FFFFFC
:1017900081B0CDF800E00E4801460020FFF7F8FECA
:1017A00042F280512020FFF797FE0A480221FFF7FE
:1017B0005BFE44F67F77C0F212077F1EFDD100BFAB
:1017C00000BF00BF00BF00BFDDF800E001B0704700
:1017D0007C1600000B00002081B01CF8019B0BF868
:1017E000019BBBEB0A0FF8D101B0704781B00249F1
:1017F0000248016001B070474019010064000020F8
:1018000081B0FEE701B0704700F00EF800F03AFA40
:10181000FFF7ECFF00F0E8F9FFF7BAFFFFF730FF42
:10182000FFF7CEFEFCE7FEE781B0CDF800E0464AC8
:10183000464B474C47494BF68030814206D94648D3
:10184000006840F002014448016011E045F6C050D4
:10185000814206D94048006840F001013E480160DD
:1018600006E03D4801686FF0070001403A4801601A
:10187000FFF738FF3948036039480460394802EA05
:1018800000013948016002F0010040B119463648B4
:10189000006800F00200002800D1F8E700E01946D7
:1018A00002F4803040B10B462F48006800F400304D
:1018B000002800D1F8E700E00B4602F0805068B144
:1018C0002948006840F08051274801602648006898
:1018D00000F00050002800D1F8E7FFE702F0806038
:1018E00078B12148006840F080611F4801601146CE
:1018F0001A461D48006800F00060002800D1F8E793
:1019000001E011461A4601F0807070B11648006877
:1019100040F080711448016011461348006800F0DF
:10192000007000B9F9E70A46FFE70C48006800F0CC
:101930000C01900000F00C00814200D0F5E7DDF8CA
:1019400000E001B0704700BF8100010502841D0066
:10195000440601004019010000200240041002402A
:101960002C100240FFFF0F00001002403500000065
:1019700036000000FFFFFFFF000000000000000035
:101980000000000000000000000000000000000057
:101990000000000000000000000000000000000047
:1019A00018080000180000000000000000000000FF
:1019B0000000000000000000000000000000000027
:1019C0000000000000000000000000000000000017
:1019D00000000000080000081600000017000000CA
:1019E000FFFFFFFF000000000000000000000000FB
:1019F00000000000000000000000000000000000E7
:101A000000000000000000000000000028080000A6
:101A10002808000000000000000000000000000096
:101A200000000000000000000000000000000000B6
:101A300000000000000000000000000000000000A6
:101A4000020000003800000039000000FFFFFFFF27
:101A50000000000000000000000000000000000086
:101A60000000000000000000000000000000000076
:101A7000000000000000000018080000180000002E
:101A80000000000000000000000000000000000056
:101A90000000000000000000000000000000000046
:101AA00000000000000000000000000030001408EA
:101AB000090000000A000000FFFFFFFF0000000017
:101AC0000000000000000000000000000000000016
:101AD0000000000000000000000000000000000006
:101AE00000000000180800001800000000000000BE
:101AF00000000000000000000000000000000000E6
:101B000000000000000000000000000000000000D5
:101B10000000000000000000040000006504000058
:101B2000590400004D0400007104000095040000F9
:101B3000890400007D040000410400000504000049
:101B4000110400003504000029040000FFFFFFFF1E
:101B5000FFFFFFFFFFFFFFFFFFFFFFFFFFFFFFFF95
:101B6000FFFFFFFFFFFFFFFFFFFFFFFFFFFFFFFF85
:101B7000FFFFFFFFFFFFFFFFFFFFFFFF506C6179DB
:101B8000696E67002E20002A2A2A20496E6974692E
:101B9000616C697A696E672E2E2E202A2A2A002A05
:101BA0002A20417564696F4D555820697320696E0C
:101BB000697469616C697A6564202A2A00000000F2
:101BC0000000010203040102030406070809FFFFE5
:101BD00079100000990F0000FFFFFFFF00000000D8
:101BE000000000000000000000B5DFF824B0DFF8BE
:101BF00024A0DFF824C0FFF7EFFDDFF820B0DFF806
:101C000020A0DFF820C0FFF7E7FD00BD704700BF50
:101C100000000020420000207C1B00004400002047
:101C200050000020DC1B0000FFFFFFFFFFFFFFFF55
:101C3000FFFFFFFFFFFFFFFFFFFFFFFFFFFFFFFFB4
:101C4000FFFFFFFFFFFFFFFFFFFFFFFFFFFFFFFFA4
:101C5000FFFFFFFFFFFFFFFFFFFFFFFFFFFFFFFF94
:101C6000FFFFFFFFFFFFFFFFFFFFFFFFFFFFFFFF84
:101C7000FFFFFFFFFFFFFFFFFFFFFFFFFFFFFFFF74
:101C8000FFFFFFFF00B5DFF810B0DFF810A0FFF78F
:101C90005FFD00BD704700BF0000002090000020E5
:00000001FF
